{
  "_format": "hh-sol-artifact-1",
  "contractName": "StandaredERC20",
  "sourceName": "contracts/StandaredERC20.sol",
  "abi": [
    {
      "inputs": [
        {
          "internalType": "address",
          "name": "initialOwner",
          "type": "address"
        },
        {
          "internalType": "string",
          "name": "_name",
          "type": "string"
        },
        {
          "internalType": "string",
          "name": "_symbol",
          "type": "string"
        },
        {
          "internalType": "uint8",
          "name": "_decimal",
          "type": "uint8"
        },
        {
          "internalType": "uint256",
          "name": "_totalSupply",
          "type": "uint256"
        },
        {
          "internalType": "address",
          "name": "_service",
          "type": "address"
        },
        {
          "internalType": "bool",
          "name": "_isMintable",
          "type": "bool"
        },
        {
          "internalType": "bool",
          "name": "_isPausable",
          "type": "bool"
        },
        {
          "internalType": "bool",
          "name": "_isBurnable",
          "type": "bool"
        },
        {
          "internalType": "bool",
          "name": "_isBlackList",
          "type": "bool"
        }
      ],
      "stateMutability": "payable",
      "type": "constructor"
    },
    {
      "inputs": [
        {
          "internalType": "address",
          "name": "spender",
          "type": "address"
        },
        {
          "internalType": "uint256",
          "name": "allowance",
          "type": "uint256"
        },
        {
          "internalType": "uint256",
          "name": "needed",
          "type": "uint256"
        }
      ],
      "name": "ERC20InsufficientAllowance",
      "type": "error"
    },
    {
      "inputs": [
        {
          "internalType": "address",
          "name": "sender",
          "type": "address"
        },
        {
          "internalType": "uint256",
          "name": "balance",
          "type": "uint256"
        },
        {
          "internalType": "uint256",
          "name": "needed",
          "type": "uint256"
        }
      ],
      "name": "ERC20InsufficientBalance",
      "type": "error"
    },
    {
      "inputs": [
        {
          "internalType": "address",
          "name": "approver",
          "type": "address"
        }
      ],
      "name": "ERC20InvalidApprover",
      "type": "error"
    },
    {
      "inputs": [
        {
          "internalType": "address",
          "name": "receiver",
          "type": "address"
        }
      ],
      "name": "ERC20InvalidReceiver",
      "type": "error"
    },
    {
      "inputs": [
        {
          "internalType": "address",
          "name": "sender",
          "type": "address"
        }
      ],
      "name": "ERC20InvalidSender",
      "type": "error"
    },
    {
      "inputs": [
        {
          "internalType": "address",
          "name": "spender",
          "type": "address"
        }
      ],
      "name": "ERC20InvalidSpender",
      "type": "error"
    },
    {
      "inputs": [],
      "name": "EnforcedPause",
      "type": "error"
    },
    {
      "inputs": [],
      "name": "ExpectedPause",
      "type": "error"
    },
    {
      "inputs": [
        {
          "internalType": "address",
          "name": "owner",
          "type": "address"
        }
      ],
      "name": "OwnableInvalidOwner",
      "type": "error"
    },
    {
      "inputs": [
        {
          "internalType": "address",
          "name": "account",
          "type": "address"
        }
      ],
      "name": "OwnableUnauthorizedAccount",
      "type": "error"
    },
    {
      "anonymous": false,
      "inputs": [
        {
          "indexed": true,
          "internalType": "address",
          "name": "owner",
          "type": "address"
        },
        {
          "indexed": true,
          "internalType": "address",
          "name": "spender",
          "type": "address"
        },
        {
          "indexed": false,
          "internalType": "uint256",
          "name": "value",
          "type": "uint256"
        }
      ],
      "name": "Approval",
      "type": "event"
    },
    {
      "anonymous": false,
      "inputs": [
        {
          "indexed": true,
          "internalType": "address",
          "name": "previousOwner",
          "type": "address"
        },
        {
          "indexed": true,
          "internalType": "address",
          "name": "newOwner",
          "type": "address"
        }
      ],
      "name": "OwnershipTransferred",
      "type": "event"
    },
    {
      "anonymous": false,
      "inputs": [
        {
          "indexed": false,
          "internalType": "address",
          "name": "account",
          "type": "address"
        }
      ],
      "name": "Paused",
      "type": "event"
    },
    {
      "anonymous": false,
      "inputs": [
        {
          "indexed": true,
          "internalType": "address",
          "name": "from",
          "type": "address"
        },
        {
          "indexed": true,
          "internalType": "address",
          "name": "to",
          "type": "address"
        },
        {
          "indexed": false,
          "internalType": "uint256",
          "name": "value",
          "type": "uint256"
        }
      ],
      "name": "Transfer",
      "type": "event"
    },
    {
      "anonymous": false,
      "inputs": [
        {
          "indexed": false,
          "internalType": "address",
          "name": "account",
          "type": "address"
        }
      ],
      "name": "Unpaused",
      "type": "event"
    },
    {
      "inputs": [
        {
          "internalType": "address",
          "name": "owner",
          "type": "address"
        },
        {
          "internalType": "address",
          "name": "spender",
          "type": "address"
        }
      ],
      "name": "allowance",
      "outputs": [
        {
          "internalType": "uint256",
          "name": "",
          "type": "uint256"
        }
      ],
      "stateMutability": "view",
      "type": "function"
    },
    {
      "inputs": [
        {
          "internalType": "address",
          "name": "spender",
          "type": "address"
        },
        {
          "internalType": "uint256",
          "name": "value",
          "type": "uint256"
        }
      ],
      "name": "approve",
      "outputs": [
        {
          "internalType": "bool",
          "name": "",
          "type": "bool"
        }
      ],
      "stateMutability": "nonpayable",
      "type": "function"
    },
    {
      "inputs": [
        {
          "internalType": "address",
          "name": "account",
          "type": "address"
        }
      ],
      "name": "balanceOf",
      "outputs": [
        {
          "internalType": "uint256",
          "name": "",
          "type": "uint256"
        }
      ],
      "stateMutability": "view",
      "type": "function"
    },
    {
      "inputs": [
        {
          "internalType": "uint256",
          "name": "value",
          "type": "uint256"
        }
      ],
      "name": "burn",
      "outputs": [],
      "stateMutability": "nonpayable",
      "type": "function"
    },
    {
      "inputs": [
        {
          "internalType": "address",
          "name": "account",
          "type": "address"
        },
        {
          "internalType": "uint256",
          "name": "value",
          "type": "uint256"
        }
      ],
      "name": "burnFrom",
      "outputs": [],
      "stateMutability": "nonpayable",
      "type": "function"
    },
    {
      "inputs": [],
      "name": "decimals",
      "outputs": [
        {
          "internalType": "uint8",
          "name": "",
          "type": "uint8"
        }
      ],
      "stateMutability": "view",
      "type": "function"
    },
    {
      "inputs": [
        {
          "internalType": "address",
          "name": "",
          "type": "address"
        }
      ],
      "name": "isUserBlackList",
      "outputs": [
        {
          "internalType": "bool",
          "name": "",
          "type": "bool"
        }
      ],
      "stateMutability": "view",
      "type": "function"
    },
    {
      "inputs": [
        {
          "internalType": "address",
          "name": "to",
          "type": "address"
        },
        {
          "internalType": "uint256",
          "name": "amount",
          "type": "uint256"
        }
      ],
      "name": "mint",
      "outputs": [],
      "stateMutability": "nonpayable",
      "type": "function"
    },
    {
      "inputs": [],
      "name": "name",
      "outputs": [
        {
          "internalType": "string",
          "name": "",
          "type": "string"
        }
      ],
      "stateMutability": "view",
      "type": "function"
    },
    {
      "inputs": [],
      "name": "owner",
      "outputs": [
        {
          "internalType": "address",
          "name": "",
          "type": "address"
        }
      ],
      "stateMutability": "view",
      "type": "function"
    },
    {
      "inputs": [],
      "name": "pause",
      "outputs": [],
      "stateMutability": "nonpayable",
      "type": "function"
    },
    {
      "inputs": [],
      "name": "paused",
      "outputs": [
        {
          "internalType": "bool",
          "name": "",
          "type": "bool"
        }
      ],
      "stateMutability": "view",
      "type": "function"
    },
    {
      "inputs": [],
      "name": "renounceOwnership",
      "outputs": [],
      "stateMutability": "nonpayable",
      "type": "function"
    },
    {
      "inputs": [],
      "name": "symbol",
      "outputs": [
        {
          "internalType": "string",
          "name": "",
          "type": "string"
        }
      ],
      "stateMutability": "view",
      "type": "function"
    },
    {
      "inputs": [],
      "name": "totalSupply",
      "outputs": [
        {
          "internalType": "uint256",
          "name": "",
          "type": "uint256"
        }
      ],
      "stateMutability": "view",
      "type": "function"
    },
    {
      "inputs": [
        {
          "internalType": "address",
          "name": "to",
          "type": "address"
        },
        {
          "internalType": "uint256",
          "name": "value",
          "type": "uint256"
        }
      ],
      "name": "transfer",
      "outputs": [
        {
          "internalType": "bool",
          "name": "",
          "type": "bool"
        }
      ],
      "stateMutability": "nonpayable",
      "type": "function"
    },
    {
      "inputs": [
        {
          "internalType": "address",
          "name": "from",
          "type": "address"
        },
        {
          "internalType": "address",
          "name": "to",
          "type": "address"
        },
        {
          "internalType": "uint256",
          "name": "value",
          "type": "uint256"
        }
      ],
      "name": "transferFrom",
      "outputs": [
        {
          "internalType": "bool",
          "name": "",
          "type": "bool"
        }
      ],
      "stateMutability": "nonpayable",
      "type": "function"
    },
    {
      "inputs": [
        {
          "internalType": "address",
          "name": "newOwner",
          "type": "address"
        }
      ],
      "name": "transferOwnership",
      "outputs": [],
      "stateMutability": "nonpayable",
      "type": "function"
    },
    {
      "inputs": [],
      "name": "unpause",
      "outputs": [],
      "stateMutability": "nonpayable",
      "type": "function"
    },
    {
      "inputs": [
        {
          "internalType": "address",
          "name": "_user",
          "type": "address"
        },
        {
          "internalType": "bool",
          "name": "_status",
          "type": "bool"
        }
      ],
      "name": "updateBlackListUser",
      "outputs": [],
      "stateMutability": "nonpayable",
      "type": "function"
    }
  ],
  "bytecode": "0x6080604052604051620016a4380380620016a4833981016040819052620000269162000518565b89898960036200003783826200069f565b5060046200004682826200069f565b50506005805460ff19169055506001600160a01b0381166200008357604051631e4fbdf760e01b8152600060048201526024015b60405180910390fd5b6200008e8162000175565b506005805460ff60c81b1916600160c81b60ff8a1602179055620000df33620000c0600554600160c81b900460ff1690565b620000cd90600a62000880565b620000d9908962000898565b620001cf565b6005805461ffff60a81b1916600160a81b8615150260ff60b01b191617600160b01b851515021761ffff60b81b1916600160b81b8415150260ff60c01b191617600160c01b831515021790556040516001600160a01b038616906108fc34801591909102916000818181858888f1935050505015801562000164573d6000803e3d6000fd5b5050505050505050505050620008c8565b600580546001600160a01b03838116610100818102610100600160a81b031985161790945560405193909204169182907f8be0079c531659141344cd1fd0a4f28419497f9722a3daafe3b4186f6b6457e090600090a35050565b6001600160a01b038216620001fb5760405163ec442f0560e01b8152600060048201526024016200007a565b62000209600083836200020d565b5050565b62000217620002a8565b6001600160a01b03831660009081526006602052604090205460ff161580156200025a57506001600160a01b03821660009081526006602052604090205460ff16155b620002965760405162461bcd60e51b815260206004820152600b60248201526a109b1858dad31a5cdd195960aa1b60448201526064016200007a565b620002a3838383620002cf565b505050565b60055460ff1615620002cd5760405163d93c066560e01b815260040160405180910390fd5b565b620002d9620002a8565b620002a38383836001600160a01b0383166200030f578060026000828254620003039190620008b2565b90915550620003839050565b6001600160a01b03831660009081526020819052604090205481811015620003645760405163391434e360e21b81526001600160a01b038516600482015260248101829052604481018390526064016200007a565b6001600160a01b03841660009081526020819052604090209082900390555b6001600160a01b038216620003a157600280548290039055620003c0565b6001600160a01b03821660009081526020819052604090208054820190555b816001600160a01b0316836001600160a01b03167fddf252ad1be2c89b69c2b068fc378daa952ba7f163c4a11628f55a4df523b3ef836040516200040691815260200190565b60405180910390a3505050565b80516001600160a01b03811681146200042b57600080fd5b919050565b634e487b7160e01b600052604160045260246000fd5b600082601f8301126200045857600080fd5b81516001600160401b038082111562000475576200047562000430565b604051601f8301601f19908116603f01168101908282118183101715620004a057620004a062000430565b81604052838152602092508683858801011115620004bd57600080fd5b600091505b83821015620004e15785820183015181830184015290820190620004c2565b600093810190920192909252949350505050565b805160ff811681146200042b57600080fd5b805180151581146200042b57600080fd5b6000806000806000806000806000806101408b8d0312156200053957600080fd5b620005448b62000413565b60208c0151909a506001600160401b03808211156200056257600080fd5b620005708e838f0162000446565b9a5060408d01519150808211156200058757600080fd5b50620005968d828e0162000446565b985050620005a760608c01620004f5565b965060808b01519550620005be60a08c0162000413565b9450620005ce60c08c0162000507565b9350620005de60e08c0162000507565b9250620005ef6101008c0162000507565b9150620006006101208c0162000507565b90509295989b9194979a5092959850565b600181811c908216806200062657607f821691505b6020821081036200064757634e487b7160e01b600052602260045260246000fd5b50919050565b601f821115620002a357600081815260208120601f850160051c81016020861015620006765750805b601f850160051c820191505b81811015620006975782815560010162000682565b505050505050565b81516001600160401b03811115620006bb57620006bb62000430565b620006d381620006cc845462000611565b846200064d565b602080601f8311600181146200070b5760008415620006f25750858301515b600019600386901b1c1916600185901b17855562000697565b600085815260208120601f198616915b828110156200073c578886015182559484019460019091019084016200071b565b50858210156200075b5787850151600019600388901b60f8161c191681555b5050505050600190811b01905550565b634e487b7160e01b600052601160045260246000fd5b600181815b80851115620007c2578160001904821115620007a657620007a66200076b565b80851615620007b457918102915b93841c939080029062000786565b509250929050565b600082620007db575060016200087a565b81620007ea575060006200087a565b81600181146200080357600281146200080e576200082e565b60019150506200087a565b60ff8411156200082257620008226200076b565b50506001821b6200087a565b5060208310610133831016604e8410600b841016171562000853575081810a6200087a565b6200085f838362000781565b80600019048211156200087657620008766200076b565b0290505b92915050565b60006200089160ff841683620007ca565b9392505050565b80820281158282048414176200087a576200087a6200076b565b808201808211156200087a576200087a6200076b565b610dcc80620008d86000396000f3fe608060405234801561001057600080fd5b506004361061012c5760003560e01c8063715018a6116100ad57806395d89b411161007157806395d89b4114610289578063a9059cbb14610291578063dd62ed3e146102a4578063ea54ff0e146102dd578063f2fde38b146102f057600080fd5b8063715018a61461021a57806379cc6790146102225780637ba0770f146102355780638456cb59146102585780638da5cb5b1461026057600080fd5b80633f4ba83a116100f45780633f4ba83a146101b657806340c10f19146101c057806342966c68146101d35780635c975abb146101e657806370a08231146101f157600080fd5b806306fdde0314610131578063095ea7b31461014f57806318160ddd1461017257806323b872dd14610184578063313ce56714610197575b600080fd5b610139610303565b6040516101469190610b9c565b60405180910390f35b61016261015d366004610c06565b610395565b6040519015158152602001610146565b6002545b604051908152602001610146565b610162610192366004610c30565b6103af565b600554600160c81b900460ff1660405160ff9091168152602001610146565b6101be6103d3565b005b6101be6101ce366004610c06565b610417565b6101be6101e1366004610c6c565b610456565b60055460ff16610162565b6101766101ff366004610c85565b6001600160a01b031660009081526020819052604090205490565b6101be61048b565b6101be610230366004610c06565b61049d565b610162610243366004610c85565b60066020526000908152604090205460ff1681565b6101be6104d0565b60055461010090046001600160a01b03166040516001600160a01b039091168152602001610146565b610139610509565b61016261029f366004610c06565b610518565b6101766102b2366004610ca7565b6001600160a01b03918216600090815260016020908152604080832093909416825291909152205490565b6101be6102eb366004610cda565b610526565b6101be6102fe366004610c85565b6105e8565b60606003805461031290610d16565b80601f016020809104026020016040519081016040528092919081815260200182805461033e90610d16565b801561038b5780601f106103605761010080835404028352916020019161038b565b820191906000526020600020905b81548152906001019060200180831161036e57829003601f168201915b5050505050905090565b6000336103a3818585610623565b60019150505b92915050565b6000336103bd858285610635565b6103c88585856106b3565b506001949350505050565b6103db610712565b600554600160b01b900460ff1661040d5760405162461bcd60e51b815260040161040490610d50565b60405180910390fd5b610415610745565b565b61041f610712565b600554600160a81b900460ff166104485760405162461bcd60e51b815260040161040490610d50565b6104528282610797565b5050565b600554600160b81b900460ff1661047f5760405162461bcd60e51b815260040161040490610d50565b610488816107cd565b50565b610493610712565b61041560006107d7565b600554600160b81b900460ff166104c65760405162461bcd60e51b815260040161040490610d50565b6104528282610831565b6104d8610712565b600554600160b01b900460ff166105015760405162461bcd60e51b815260040161040490610d50565b610415610846565b60606004805461031290610d16565b6000336103a38185856106b3565b61052e610712565b600554600160c01b900460ff166105575760405162461bcd60e51b815260040161040490610d50565b6001600160a01b03821660009081526006602052604090205481151560ff9091161515036105bd5760405162461bcd60e51b8152602060048201526013602482015272416c72656164792053616d652053746174757360681b6044820152606401610404565b6001600160a01b03919091166000908152600660205260409020805460ff1916911515919091179055565b6105f0610712565b6001600160a01b03811661061a57604051631e4fbdf760e01b815260006004820152602401610404565b610488816107d7565b6106308383836001610883565b505050565b6001600160a01b0383811660009081526001602090815260408083209386168352929052205460001981146106ad578181101561069e57604051637dc7a0d960e11b81526001600160a01b03841660048201526024810182905260448101839052606401610404565b6106ad84848484036000610883565b50505050565b6001600160a01b0383166106dd57604051634b637e8f60e11b815260006004820152602401610404565b6001600160a01b0382166107075760405163ec442f0560e01b815260006004820152602401610404565b610630838383610958565b6005546001600160a01b036101009091041633146104155760405163118cdaa760e01b8152336004820152602401610404565b61074d6109e7565b6005805460ff191690557f5db9ee0a495bf2e6ff9c91a7834c1ba4fdd244a5e8aa4e537bd38aeae4b073aa335b6040516001600160a01b03909116815260200160405180910390a1565b6001600160a01b0382166107c15760405163ec442f0560e01b815260006004820152602401610404565b61045260008383610958565b6104883382610a0a565b600580546001600160a01b03838116610100818102610100600160a81b031985161790945560405193909204169182907f8be0079c531659141344cd1fd0a4f28419497f9722a3daafe3b4186f6b6457e090600090a35050565b61083c823383610635565b6104528282610a0a565b61084e610a40565b6005805460ff191660011790557f62e78cea01bee320cd4e420270b5ea74000d11b0c9f74754ebdbfc544b05a25861077a3390565b6001600160a01b0384166108ad5760405163e602df0560e01b815260006004820152602401610404565b6001600160a01b0383166108d757604051634a1406b160e11b815260006004820152602401610404565b6001600160a01b03808516600090815260016020908152604080832093871683529290522082905580156106ad57826001600160a01b0316846001600160a01b03167f8c5be1e5ebec7d5bd14f71427d1e84f3dd0314c0f7b2291e5b200ac8c7c3b9258460405161094a91815260200190565b60405180910390a350505050565b610960610a40565b6001600160a01b03831660009081526006602052604090205460ff161580156109a257506001600160a01b03821660009081526006602052604090205460ff16155b6109dc5760405162461bcd60e51b815260206004820152600b60248201526a109b1858dad31a5cdd195960aa1b6044820152606401610404565b610630838383610a64565b60055460ff1661041557604051638dfc202b60e01b815260040160405180910390fd5b6001600160a01b038216610a3457604051634b637e8f60e11b815260006004820152602401610404565b61045282600083610958565b60055460ff16156104155760405163d93c066560e01b815260040160405180910390fd5b610a6c610a40565b6106308383836001600160a01b038316610a9d578060026000828254610a929190610d75565b90915550610b0f9050565b6001600160a01b03831660009081526020819052604090205481811015610af05760405163391434e360e21b81526001600160a01b03851660048201526024810182905260448101839052606401610404565b6001600160a01b03841660009081526020819052604090209082900390555b6001600160a01b038216610b2b57600280548290039055610b4a565b6001600160a01b03821660009081526020819052604090208054820190555b816001600160a01b0316836001600160a01b03167fddf252ad1be2c89b69c2b068fc378daa952ba7f163c4a11628f55a4df523b3ef83604051610b8f91815260200190565b60405180910390a3505050565b600060208083528351808285015260005b81811015610bc957858101830151858201604001528201610bad565b506000604082860101526040601f19601f8301168501019250505092915050565b80356001600160a01b0381168114610c0157600080fd5b919050565b60008060408385031215610c1957600080fd5b610c2283610bea565b946020939093013593505050565b600080600060608486031215610c4557600080fd5b610c4e84610bea565b9250610c5c60208501610bea565b9150604084013590509250925092565b600060208284031215610c7e57600080fd5b5035919050565b600060208284031215610c9757600080fd5b610ca082610bea565b9392505050565b60008060408385031215610cba57600080fd5b610cc383610bea565b9150610cd160208401610bea565b90509250929050565b60008060408385031215610ced57600080fd5b610cf683610bea565b915060208301358015158114610d0b57600080fd5b809150509250929050565b600181811c90821680610d2a57607f821691505b602082108103610d4a57634e487b7160e01b600052602260045260246000fd5b50919050565b6020808252600b908201526a139bdd08105b1b1bddd95960aa1b604082015260600190565b808201808211156103a957634e487b7160e01b600052601160045260246000fdfea2646970667358221220740b0e96870f0d360d55335c0b0737fefce7227f2b616a1849f855c4346f579864736f6c63430008140033",
  "linkReferences": {},
  "deployedLinkReferences": {}
}